:020000022000DC
:1070000000000420757302005D7302005F730200CC
:1070100061730200637302006573020000000000E8
:107020000000000000000000000000006773020084
:1070300069730200000000006B7302006D730200B0
:10704000019B02006F730200A19F02006F73020098
:107050006F7302006F730200259E02006F730200BF
:107060006F7302006F7302006F7302006F73020090
:107070006F7302006F7302006F7302006F73020080
:107080006F730200D98902006F7302006F730200F0
:107090006F7302006F730200E9CB02006F7302008E
:1070A0006F7302006F7302006F7302006F73020050
:1070B0006F7302006F730200000000000000000008
:1070C0006F7302006F7302006F7302006F73020030
:1070D0006F7302006F7302006F7302006F73020020
:1070E0006F7302006F7302006F73020000000000F4
:1070F000000000006F730200000000006F730200C8
:10710000000000000000000000000000000000007F
:10711000000000000000000000000000000000006F
:10712000000000000000000000000000000000005F
:10713000000000000000000000000000000000004F
:10714000000000000000000000000000000000003F
:10715000000000000000000000000000000000002F
:10716000000000000000000000000000000000001F
:10717000000000000000000000000000000000000F
:1071800000000000000000000000000000000000FF
:1071900000000000000000000000000000000000EF
:1071A00000000000000000000000000000000000DF
:1071B00000000000000000000000000000000000CF
:1071C00000000000000000000000000000000000BF
:1071D00000000000000000000000000000000000AF
:1071E000000000000000000000000000000000009F
:1071F000000000000000000000000000000000008F
:10720000354936480A1A02D0072291438D4634493F
:1072100034480A1A06D00722914381F309880222D2
:1072200082F3148830483149314A00F044F831483B
:107230003149324A00F03FF831483249324A00F0D1
:107240003AF832483249334A00F035F83248334987
:10725000334A00F030F833483349344A00F02BF811
:1072600033483449344A00F026F83448344900227F
:1072700000F02CF833483449002200F027F8334856
:107280003349091A082902DB002202604160314AB1
:1072900090471F481F49884205D00268043003B454
:1072A000904703BCF7E700208646EC46002000210B
:1072B000294A9047FEE7884207D0521A05D0037842
:1072C00001300B700131013AF9D17047884202D088
:1072D00002700130FAE770470000042000E003204C
:1072E0000000042000000420A8EC0200382A00203E
:1072F000DC300020D0730200D07302003CD90200C1
:10730000A8EC0200382A0020382A00207CDA02008B
:107310007CDA02007CDA02007CDA02007CDA02000D
:107320007CDA02007CDA02007CDA0200A8EC0200BF
:107330004CF30200DC300020DC300020DC30002088
:10734000904000209040002090400020904000207D
:10735000906000209D73020061B30200FEE7FEE72B
:10736000FEE7FEE7FEE7FEE7FEE7FEE7FEE7FEE7F5
:1073700000F002B8FFF7FCBF0F484FF00701884349
:1073800085460E4880470E48016841F4700101604F
:10739000BFF34F8FBFF36F8FFFF732BF09480A4922
:1073A0000A4A884207D0521A05D0037801300B7080
:1073B0000131013AF9D17047000004200195020023
:1073C00088ED00E07CDA0200382A0020382A00200C
:1073D0007047000007B5044B0093044A402300F0B7
:1073E00032F803B05DF804FBF1730200DD300020D9
:1073F0002DE9F84388461446B2B10F4B0F4E0325D2
:10740000002743F00109224608EB0701002004F0A1
:10741000EFF80744241A48B933782BB14FF47A4077
:10742000C847013D02D13570BDE8F88301233370B0
:10743000002CE8D1F8E700BF80DA0200DC30002041
:10744000704704F005B9F0B595B01D4616460846DC
:107450000C4601F047FE1A9B0D93CDE90865002507
:107460002B46082205A920460A958DF82C500C952C
:1074700001F054FE079B0293069B03939DF8143082
:107480008DF8115003F00302012A1DD1BDF814201C
:10749000059DC3F3C203C2F383168DF81030B2000A
:1074A00008230EA9204601F039FEC5F3952508AB47
:1074B0000093324602AB0EA9284600F051FB20464D
:1074C00001F014FE15B0F0BD022AF8D1BDF8165037
:1074D000C3F3C203C5F389158DF810300827082DB2
:1074E0002E4628BF08263B4632460EA9204601F00C
:1074F00015FEAD1B08AB02AA31460EA8374400F0BA
:1075000093FB002DEBD1DAE708B5FFF79AFF0448AB
:10751000042100F08FFA034B01225A7108BD00BF0D
:107520006CDA0200382A0020037813F0040216D027
:1075300003F00303012B03D0022B09D00120704775
:107540000A6800880232C0F3831002440A60F5E73B
:107550000B684288023303EB92130B60EEE7104690
:10756000704700002DE9F04FDFF81CA187B00F46EF
:1075700000230446861C0DF1070015468DF80730E0
:1075800001F0BCF8DAF804203A60DAF8083003F5C4
:1075900080739B1A0AF21C470AF583690AF21448A1
:1075A000B3421AD30020002D69D004F00F039B01D1
:1075B00043F0050363F30F00DAF80430DAB2033264
:1075C00033444AF822009DF80700CAF8043001F05D
:1075D000B9F8012007B0BDE8F08F0121384601F06D
:1075E000B0FA484601F0C5FA404601F0C2FADAF8AE
:1075F00008000290C0B203300AEB800002A9FFF736
:1076000093FF029B30BBDAB20AEB8202D16803918E
:107610009A1C0133DBB20AEB83030292D3F80CB05D
:1076200001F00303012B22D0022B15D083464046E4
:1076300001F0A2FA10B1029BCAF808305946384648
:1076400001F07FFADAF80830DAF8042003F58073E5
:107650009B1AA5E7D8B2CEE7BDF80E30C3F3891365
:1076600003334FEA1B4B02EB93030293DFE7BDF8B2
:107670000C30C3F383134FEA1B4B1344F5E7A40507
:1076800044F0060098E700BFF0310020064B0748A1
:1076900010B500221A7001F0DEFC044610B904484F
:1076A00001F097FE204610BDF0310020E0D9020025
:1076B000BCDA020030B50A4C71B10A4A0A49121B01
:1076C000D20800239A4201D1002030BD31F8235066
:1076D000854202D00133F5E7034654F83300F4E75E
:1076E00048D90200E0D90200382A0020094B0139AC
:1076F00003EBC000032909D8DFE801F00A02040601
:107700000420704700797047407970470020704727
:107710000220704748D9020070470000034BD3E9AC
:107720000130C31A58425841704700BFF031002061
:107730002DE9F04186B0FFF7F1FF0546002840F043
:10774000ED80774CC4F81804BFF34F8FA368029301
:10775000DBB2033304EB830002A9FFF7E5FE029BD3
:1077600018B1D4F81824002A5AD0DAB2991C01337F
:1077700004EB8202DBB204EB8303D268DB68049380
:1077800002F00303022B0392029154D1BDF80E3094
:107790006448C3F38917502F3E4628BF502606F190
:1077A000080166F38F13C1F30901ADF80E3001F043
:1077B0006AFC0546002800F09C8001F093FC002341
:1077C000082203A9284601F09FFC0299CB43DBB2B3
:1077D0000133C9B20331B6EB830F4FEA830204EBE6
:1077E000810125D95FFA82F80823A6EB080628460E
:1077F00001F08AFCF6B208F108034B4903F0FC03E0
:107800003246284601F080FC029B033703EB9707C2
:107810000297D4F81834002B43D1D4F8106453E005
:1078200062689A4294D8A260284606B0BDE8F0810A
:1078300008233246E5E7012B5BD1BDF80C3039480F
:10784000C3F38311062928BF062161F3891302318E
:1078500001F00F018900ADF80C3001F014FC054671
:10786000002846D001F03EFC0023082203A9284648
:1078700001F04AFC0026BDF80C20C2F38312B300CD
:10788000964203F10803C4D202994A1CC9B20331DB
:10789000029204EB81010422284601F035FC0136F6
:1078A000E9E7284601F022FCFFF738FF80F00100ED
:1078B000C5B2B9E7F3685B7923B1336829461B6821
:1078C00030469847F3681E68002EF3D1284601F031
:1078D0000DFC0DF107008DF8076000F00FFFD4F8E4
:1078E00018340BB9029BA3609DF8070000F02AFF33
:1078F000DAE7D4F8104454B90C4B0D480D49C01ABE
:10790000C008000440F0020000F05EF8CCE72368F5
:1079100020469B689847E3681C68ECE7002583E7EE
:10792000F0310020E0D90200FC31002048D90200EB
:1079300070D90200A4DA02002DE9F34704460E468E
:10794000924601A9012218469946FFF70BFE1C4FEB
:1079500010B3019D4FF00008AA1CC84508EB0201B6
:1079600025D11848002101F0C9F880F31000000467
:1079700040EA1440E4006B1C04F03804DBB2EDB2C2
:1079800044F0010407EB8303033544EA881444EA16
:107990008624D86047F825403B781BB1FFF7C8FE26
:1079A0000028FBD1FFF7B8FE02B0BDE8F087C9B2EE
:1079B00007EB81015AF82830CB6008F10108CCE7C9
:1079C000F03100200C36002000231A46FFF7B4BF28
:1079D00007B50123019201AAFFF7AEFF03B05DF8DE
:1079E00004FB07B5CDE9002302236A46FFF7A4FF95
:1079F00003B05DF804FB1FB5CDE90123069B03939B
:107A000001AA0323FFF798FF05B05DF804FB7FB5DB
:107A1000CDE90023089B0293099B03930A9B0493DF
:107A20000B9B05936A460623FFF786FF07B05DF8B8
:107A300004FB000030B50F4CD4F81024034600209E
:107A4000114631B9D96808714AB9C4F810340A60CE
:107A500030BDC9680D79854206D00968F1E7D26862
:107A600014680C601360F3E701300A28E8D14FF086
:107A7000FF30EDE7F031002038B5084B0125D3F891
:107A800010441D7004B938BDE3685D712368204659
:107A90005B689847E3681C68F4E700BFF03100209A
:107AA00030B5C38885B004460D4633B1144A009200
:107AB0001449154A284601F0C2F8217A05291DD03B
:107AC000637A4BB1A088FFF711FE104B104953F8B1
:107AD0002020284601F0B3F8227A0E4BA08853F8F4
:107AE000222003920021FFF7E5FD039A0A4903468D
:107AF000284605B0BDE8304001F0A1B805B030BD62
:107B0000E8DA0200D0DA0200C8DA020054DB020030
:107B1000EDDA020078DB0200F0DA020007B5034676
:107B20000846197A052911D05B7A2BB1094A0A490E
:107B3000019001F084F801980849019001F07FF864
:107B4000019803B05DF804EB01F06EB8002AF8D09C
:107B5000F2E700BFE8DA0200EDDA0200ACE302006F
:107B60002DE9F04385B01F460C9D002395F80C903D
:107B70002B7306460C46904629463846FFF790FF81
:107B8000B8F1060F09D8DFE808F00412181F2833EF
:107B900040003146284601F052F800222946384676
:107BA000FFF7BCFF85F80C9005B0BDE8F0832268B4
:107BB0003146284601F043F8EFE7D4E90023314687
:107BC000284601F03CF8E8E7A36800933146D4E981
:107BD0000023284601F033F8DFE7E3680193A36848
:107BE00000933146D4E90023284601F028F8D4E771
:107BF00023690293E3680193A36800933146D4E9B3
:107C00000023284601F01BF8C7E763690393236943
:107C10000293E3680193A36800933146D4E90023FB
:107C2000284601F00CF8B8E708292DE9F74F8046FF
:107C30000E4617461C463CD8002593F80C901D7341
:107C400019461046FFF72CFFDFF888A0DFF888B050
:107C5000AE4231D918F805205946204600F0EFFF12
:107C60000135082DF4D11949194DDFF870A02046CF
:107C700000F0E5FF4FF0000B5E4522D918F80B200D
:107C80007E2A05D81046019205F01EFA019A00B925
:107C90002E225146204600F0D2FF0BF1010BBBF122
:107CA000080FE9D1012221463846FFF737FF84F853
:107CB0000C9003B0BDE8F08F5146204600F0BFFFA6
:107CC000CEE72946204600F0BAFFE6E704DB0200D3
:107CD00002DB020000DB0200FADA020006DB02002F
:107CE000C30710B507D4F023054A4008145C2340AD
:107CF0001943115410BD0901C9B20F23F4E700BFA5
:107D0000B836002030B5094B1C78094B19680023A0
:107D10009C4202DC0022104630BD11F833508542EF
:107D200001EBC302F7D00133F2E700BFA836002011
:107D3000D836002013B504460191FFF7E3FF38B1B0
:107D400043682BB10199204602B0BDE810401847A6
:107D500002B010BD034B044819680022490800F026
:107D600087BA00BFAC360020402A002010B5C0B250
:107D7000FFF7C8FF0446007802F046F863785A1E01
:107D800053425341834208D1044BD3E900231343A8
:107D900003D1BDE81040FFF7DDBF10BDB0360020B5
:107DA00037B54308374AD35CC2074CBF1B0903F001
:107DB0000F0304460D46042B25D8DFE803F0032605
:107DC0002F3C4000F9B10121FFF78AFF00230DF19C
:107DD00007008DF8073000F091FC0120A4F120038A
:107DE000C4F12001284A20FA01F100FA03F30B4301
:107DF000A040D2E9004120430B43C2E900039DF8B3
:107E0000070000F09FFC03B030BD002918BF02211D
:107E1000204603B0BDE83040FFF762BF49B10321FF
:107E2000FFF75EFF0121204603B0BDE83040FFF7B9
:107E300081BF0121ECE70029E5D10421E8E709B180
:107E40000321E5E7FFF74CFF29462046FFF772FFC5
:107E50000DF107008DF8075000F050FC0120A4F14F
:107E60002003C4F12001084A20FA01F100FA03F3CB
:107E70000B43A040D2E9004124EA000021EA0303B9
:107E8000BBE700BFB8360020B03600202DE9F04136
:107E9000124E134F00243378A34208DC114BD3E970
:107EA0000023134318D0BDE8F041FFF753BF3D68EE
:107EB00005EBC40815F8340001F0A6FF98F801306E
:107EC0005A1E53425341181A4142414115F8340099
:107ED000FFF766FF0134DEE7BDE8F081A836002039
:107EE000D8360020B0360020092AF7B505460C46E2
:107EF00016463ED901F0B0FEE8B11F4B1F481D6089
:107F00001F4B204F1C70204B002120221E6005F0CB
:107F100071F91E4B00200021C3E90001013CE4B2CD
:107F20000326FF2C0DD11A4A1A48002103B0BDE8E0
:107F3000F04000F08BB901F049FE0028DDD003B01D
:107F4000F0BD9DF8063015F834008DF8046005EB9F
:107F5000C40223F007038DF8063001A993788DF849
:107F600005303A4601F082FE013CE4B20028D8D048
:107F7000E5E70720E3E700BFD8360020B836002049
:107F8000A83600206D7D0200AC360020B0360020FF
:107F90008D7E020098DB020070B5084D084E00246B
:107FA0002B789C4201D3002070BD3368012113F867
:107FB000340001F0DBFE0134F2E700BFA8360020F8
:107FC000D83600201FB50021039001AA44F2010019
:107FD000CDE9011100F004F805B05DF804FB0000E4
:107FE00038B572B6FFF748FDFFF7A2FB0028FBD1BA
:107FF000104B114C114D1249E41AE408240444F0CA
:108000000100FFF7E1FCD5F8F030DB0700D500BE3A
:108010000C4944F00200FFF7D7FCBFF34F8FEA682A
:10802000094B02F4E0621343EB60BFF34F8F00BFD4
:10803000FDE700BF48D9020070D9020000ED00E062
:108040009CDB0200A8DB02000400FA0549B152B132
:10805000531E1A4007D1826001608380C2601046BF
:1080600070470E2070470920704710B58468C268B9
:108070008388121B934208D3C26813400268D1540C
:10808000C3680133C360002010BD0420FCE7826890
:10809000C3689A420AD08268838813400268D35C1E
:1080A0000B708368013383600020704705207047A0
:1080B00010B5D0E90243D1E90202A04272EB0303FA
:1080C0002CBF0120002010BD08B50A4800F06DFC4F
:1080D000094AD2E90031C018084BD3E9002341F125
:1080E0000001904271EB030303D210F1807041F163
:1080F000000108BD602A0020E0360020583700202B
:1081000037B505460C460A4801A900F082FC60B16B
:108110000570446001A9064800F0A5FC18B10548A7
:1081200000F048FC002003B030BD0420FBE700BF96
:1081300044370020602A0020294B73B51E7804467E
:108140001EB90026304602B070BD0028F9D0FFF7F6
:10815000BBFFD4E902239042994139D300230DF1AA
:1081600007008DF8073000F0C9FA23692BB94FF0EA
:10817000FF324FF0FF33C4E902239DF8070000F0FF
:10818000E1FAD4E90530984700250DF107008DF894
:10819000075000F0B3FA2369C3B1D4E90212B2F177
:1081A000FF3F08BFB1F1FF3F05D05B1842F100026D
:1081B000C4E9023235469DF8070000F0C3FA002DED
:1081C000BFD00848214601F023F9BBE71D46F2E77E
:1081D000B3F1FF3F08BFB2F1FF3FB2D0F1E700BFFC
:1081E000E8360020C4DB020013B5114B11491868B2
:1081F000019008231048582200F0F8FB044698B973
:108200000E4A0F4801A900F0C1FA044660B90C48B3
:10821000012100F0ADFB01230A4A0948194600F08C
:108220000FFB094B01221A70204602B010BD00BF9F
:10823000C0DB0200EC360020443700202983020016
:10824000602A0020FFFF7F00E836002030B56AB1C9
:1082500003684FF0FF344FF0FF355A614A1E514218
:10826000C3E9024551411961002030BD0720FCE7F8
:10827000F7B5044600250DF1070017460E468DF8A8
:10828000075000F03BFAD4E90223B3F1FF3F08BFE7
:10829000B2F1FF3F07D1FFF717FF301841F100019E
:1082A000C4E9020101259DF8070000F04BFA55B121
:1082B0002369A76103B126612146002003B0BDE810
:1082C000F040FFF71DBF284603B0F0BD37B50546A7
:1082D00000240DF107008DF8074000F00FFAD5E9F2
:1082E0000223B3F1FF3F08BFB2F1FF3F1FBF4FF0C2
:1082F000FF324FF0FF33C5E9022301249DF8070048
:1083000000F020FA34B12946012003B0BDE8304026
:10831000FFF7F6BE204603B030BD0000014800F074
:1083200044BB00BF602A00202DE9F743064600F059
:1083300027FB40B1624AD2E9003113F1807341F169
:108340000001C2E900310021304600F028FB38B1BD
:108350005C4C236823B12068FFF7EEFE0023236006
:108360000121304600F01BFB20B1FFF7ADFE564B5C
:10837000C3E900015548534C01A900F084FB4FF0BC
:10838000FF384FF0FF39A0B9DFF844814D4D40462A
:1083900001F054F8002800F08580D0E90223B3F101
:1083A000FF3F08BFB2F1FF3F32D1404601F040F835
:1083B000EDE70378012B20D0022B08D1444D28464D
:1083C00001F036F8002877D0C0E90289F7E75BB9F9
:1083D0004168D1E90223B3F1FF3F08BFB2F1FF3F8B
:1083E00002D03B4801F014F801A9384800F076FBB0
:1083F00001A9364800F047FBC5E741682368994268
:1084000002D100232360EFE7314801F01AF8EBE7CF
:10841000296891B12968D1E9020182428B412FD2AA
:108420002B68D3E90223B3F1FF3F08BFB2F1FF3F4E
:1084300003D02968404600F0EBFF404600F0F8FF0B
:10844000D0E902490746FFF73FFE201A69EB010910
:10845000012879F1000318DBB0F5350F13D3FFF7CE
:108460005DFF1C4A02441C484FF49603002100F0B3
:1084700007FA90B92B6813B9304600F0D9F92F608C
:1084800003B0BDE8F0832246EDE71348002100F079
:108490007CFA3846FFF750FE01E00D28F9D00023A2
:1084A0002B6074E7074B1B68002BE9D1304603B003
:1084B000BDE8F04300F0C0B9084B01221A7093E701
:1084C000E036002060370020583700204437002075
:1084D000C4DB0200FFFFB400602A0020E836002061
:1084E0000648074A03780749D35C012213B10430D8
:1084F00002F0ECB90C3001F095BF00BF682A0020F3
:10850000DC3700208C3700200648074A03780749EB
:10851000D35C012213B1043002F08AB90C3001F0AF
:1085200031BF00BF682A0020DC3700208D370020D3
:1085300037B50578012D0DD0022D30D075B91F4902
:108540001F48FFF7A4FD002834D103B0BDE8304038
:10855000FFF7DABF037A1BB9FFF7C2FF03B030BDE4
:108560004368184C19782046FFF77FFD80B18DF8DD
:1085700000500190144B68461B689847A168E36857
:10858000A2885B1A9A42E7D2104B01221A70E5E7E3
:10859000A268E3689A42F1D08DF80000EAE7C36868
:1085A0008DF800500193FFF79BFF074B68461B684F
:1085B0009847D3E703238DF80030F6E78D37002086
:1085C0007C3700206837002064370020783700208F
:1085D000F0B51F46234B89B004461A600D460029AA
:1085E0003DD08A8820480968FFF730FD002834D143
:1085F000AA89A9681D48FFF729FD00282DD11C4E26
:108600000FCE6D460FC596E80F0085E80F00636931
:108610000693237C174A18488DF81C70003B18BF3E
:1086200001238DF81430637C002B14BF0E2300232C
:108630008DF81530E3680293A368039323680193D0
:1086400069466368009301F0E3F930B90B4B187089
:108650002368013301D0FFF743FF09B0F0BD0720C5
:10866000FBE700BF64370020683700207C3700201C
:10867000D0DB020031850200682A00207837002014
:1086800070B5084D014608482E78FFF700FD0446F6
:1086900036B100232B70FFF723FF08B1FFF792FCE0
:1086A000204670BD783700206837002010B501469D
:1086B0000E48FFF7DAFC0446A8B90D480D4A0378C6
:1086C000D35C63B1043002F0A7F860B90A490748E7
:1086D000FFF7DDFC38B9BDE81040FFF715BF0C30DF
:1086E00001F044FEF1E7204610BD00BF7C370020BA
:1086F000682A0020DC3700208D37002070B5EFF3AA
:10870000108672B60C4A946801239CB993600B4B97
:108710000B4DD3F8801029401160C3F88050D3F876
:10872000841051604FF0FF32C3F88420047006B902
:1087300062B670BD0370FAE79037002000E100E0F8
:10874000FC06FFBD084B9A6810B55AB150B9EFF35B
:10875000108172B6054A1C6814605C6854609860A9
:1087600001B962B610BD00BF9037002000E100E003
:10877000435882B03BB10023435043580193019BBF
:10878000012002B070471846FBE70000F8B5204B07
:108790004479204E43F824201F4A204B06EBC404A2
:1087A0009B1A2279DB081B0432B143F002001C49FA
:1087B000FFF70AF90820F8BD02680C88C2F80845DE
:1087C00090F904508A7804795201002DD2B219DB55
:1087D00014494F1987F8002301226D0904F01F0482
:1087E00002FA04F441F82540427906EBC201012463
:1087F00046F832000C7143F003000B49FFF7E4F830
:108800000020D8E7094904F00F040A55ECE700BF3F
:10881000A43700209C37002048D9020080D90200EC
:10882000F0DB020000E100E012DC020014ED00E0E9
:10883000036801221A607047036801225A6070477A
:1088400073B501F15005AD000068ADB24FF480344E
:108850008C400026C0F80843C0F84843465101F553
:10886000A8714559019522F07F42019D40F82120D1
:10887000C0F844430BB1C0F8044302B070BD00001F
:108880002DE9F74F0D4622F07F4402684FF4803700
:1088900005F150068F408046B60002EB8500C2F815
:1088A0004873B6B2C2F80873D2F8041599464FF06F
:1088B000000BD0F84035C0F8401542F806B05B1AFE
:1088C0009259009223F07F43012B009A4FEA850AC8
:1088D0000CD1264B4FF4806043F001039847D8F841
:1088E000003043F806B09B590193019BD8F8001063
:1088F000D1F80465C1F84473A31B23F07F43012B17
:108900001CD11A4B05F5A875013443F0010341F859
:1089100025404FF480609847D8F80030D3F80435EC
:108920009E4209D1D8F800300020C3F84473C3F840
:10893000047303B0BDE8F08F0D20FAE78A44C9F153
:10894000FF13CAF84045D1F80405221A013A22F073
:108950007F4203F57F439342EED3002AE2D10134F4
:10896000CAF84045D1F804359842DAE730DC020015
:1089700003680222C3F8442309B1C3F804237047F3
:1089800000684FF48271FFF7F3BE4FF4803303FAAF
:1089900001F10368C3F84813C3F808137047503156
:1089A0008900006889B2FFF7E3BE0368D3F80405C5
:1089B0007047000090F90430002B09DB5A090121AF
:1089C00003F01F0301FA03F34032024941F8223059
:1089D000704700BF00E100E0024B034A1B681068CB
:1089E000184700BFA43700209C37002010B561B1A4
:1089F000B2FBF3F403FB1424A4B244B9C0E900149D
:108A000084608281C381204610BD0E20FCE70920CE
:108A1000FAE737B550E8013F9DB2C48925448489FF
:108A2000A54228BF2D1B0489A54202BFBFF32F8F8B
:108A3000002207E0C5EA030540E80154002CE9D113
:108A40004FF001028DF803200193019A0A609DF80E
:108A5000031001F0FF0321B1006810FA82F003B0A7
:108A600030BD1846FBE70A884B889A4209D150E886
:108A7000012FC2EA024240E80123002BF7D1012076
:108A800070470020704737B550E8023F1FFAA3F542
:108A9000C488A54202BFBFF32F8F00220DE0C48916
:108AA00025448489A54228BF2D1BC3EA054540E81B
:108AB0000254002CE8D14FF001028DF803200193FD
:108AC000019A0A609DF8031001F0FF0321B10068CC
:108AD00000EB124003B030BD1846FBE70A884B8814
:108AE0009A4209D150E8022FC2EA224240E802230A
:108AF000002BF7D1012070470020704710B50346C6
:108B000053E8000F0A4643E8002494F0000FF7D121
:108B100010BD10B5034653E8002F42EA010043E8B8
:108B2000000494F0000FF6D110BD10B5034653E8D1
:108B3000000F00EA010243E8002494F0000FF6D190
:108B400010BD10B5034653E8002F02EB010043E8C7
:108B5000000494F0000FF6D110BD10B5034653E8A1
:108B6000002FA2EB010043E8000494F0000FF6D1BF
:108B700010BD0121FFF7CDBF0021FFF7D6BF10B513
:108B800090B1D0E9012301689B1ADBB20A60013B76
:108B9000DBB2FF2B026802D10020107110BD1168FA
:108BA0004C1C14600B70F2E70E20F7E737B5054652
:108BB00000240DF107008DF80740FFF79FFD2A689C
:108BC0006B68116899420ED9481E106011F8013C7B
:108BD000EC68298A01FB0344AB6811791B1ADBB2EC
:108BE000994238BF13719DF80700FFF7ABFD20468F
:108BF00003B030BD37B5054600230DF107000C4624
:108C00008DF80730FFF77AFD2A681368591C116048
:108C1000E968641A298AB4FBF1F41C709DF8070016
:108C2000FFF790FD03B030BD826810B504462AB14D
:108C300043690168006998470023A36010BD0EB422
:108C400003B5039921B104AB01AA019300F076F8B2
:108C500002B05DF804EB03B070470A2938B504464A
:108C60000D4602D10D21FFF7F8FFA3682268591CB9
:108C7000A160D554D4E901329A4204D32046BDE81C
:108C80003840FFF7D1BF38BD2DE9F84F9846DDE9F0
:108C90000A43154682460F460A464FF00109AA428A
:108CA0000FD2C14538BFC14613F0010B01D16CB9D9
:108CB00000240126B8F1010F1BD908F1FF386E43DB
:108CC000F8E709F10109B2FBF5F2E8E79B070ED5D9
:108CD000B8F1000F0CBF30262026A145E9D2013C97
:108CE00031465046FFF7B9FF002CF6D1E0E72026C9
:108CF000F3E7B7FBF6F39D42E1D9DFF83C80B7FB21
:108D0000F6F3504618F8031006FB1377FFF7A5FF9C
:108D10003346AB42B6FBF5F6F1D2BBF1000F02D001
:108D20000CB1A14501D3BDE8F88F20215046013C8C
:108D3000FFF793FFF4E700BF36DC02002DE9F74FA1
:108D4000054617468846002900F03E8118F8011BA9
:108D500049B92B7B002B00F03781284603B0BDE8D2
:108D6000F04FFFF761BF252940F0B780002698F843
:108D700000302D2B424608F1010823D0302B24D09F
:108D80002B2B25D000242A2B02F1010123D13B6893
:108D90001A1D1B683A601C440A4613782E2B26D1F4
:108DA00001324FF0000A104610F8011BA1F1300CFF
:108DB000BCF1090F1DD80A2303FB0A13A3F1300AE3
:108DC0000246F0E746F00106D1E746F00206CEE79C
:108DD00046F00406CBE711F8013CA3F13000092866
:108DE000DBD80A2202FB0434303C0A46CBE74FF0C2
:108DF000000A12F8011B01F0FB0068289046F8D029
:108E0000782909D86F290CD8632962D022D825295E
:108E100063D0582900F0888098F80030002B95D155
:108E200097E770390829F7D801A353F821F000BF5C
:108E3000A38F0200198E0200198E0200398F0200E2
:108E4000198E0200178F0200198E0200198E02007F
:108E5000298F0200642901D06929DDD13A68D2F84E
:108E60000090111D89EAE9723960A2EBE9724FF0B6
:108E7000010B092A35DCD34538BFD3462CB1B9F1F3
:108E8000000F01DB720700D5013CB30702D5BAF130
:108E9000000F03D0F00701D44CBB0024B9F1000F40
:108EA0002DDAC9F100092D212846FFF7D6FE06F07C
:108EB0000302022A04D1BAF1000F01D11CBB002425
:108EC000CDE9004653460A2249462846FFF7DCFE14
:108ED000A2E73B681A1D19783A602846FFF7BDFEE5
:108EE0009AE70A230BF1010BB2FBF3F2C1E7A345AA
:108EF000D4D220212846013CFFF7AFFECCE7710712
:108F0000D5D52B21D0E7A345DAD230212846013C24
:108F1000FFF7A3FED2E73968CDE900460A1D3A60A3
:108F200053460A220968D0E739680A1D3A60CDE93C
:108F3000004653461022F5E73B681A1D3A6016F0CA
:108F40000106D3F8009024D1B9F1000F03D04846B0
:108F500004F0A5F90646B4421DD809F1FF3919F805
:108F6000011F00293FF458AF2846FFF776FEF6E7C9
:108F700028460136FFF771FE19F806100029F7D1CF
:108F8000A642BFF449AF20212846013CFFF765FE09
:108F9000F6E70026F0E720212846013CFFF75DFEBA
:108FA000D9E73B681A1D3A60302128461C68FFF754
:108FB00054FE78212846FFF750FE00220823CDE911
:108FC00000322146102280E703B0BDE8F08F00BFD9
:108FD0002DE9F84FB0F806A04579D2F800B09DF819
:108FE00028900AFB05F5043D88460BEB0301A942D6
:108FF00003F1040488BFA5EB030BB4FBFAF60746A4
:109000000AFB1644C2F800B04EB9AAEB04055D4550
:1090100028BF5D46BBF1000F04D1BDE8F88F3F6863
:10902000013EF1E7043408EB06003C442A46B9F15E
:10903000000F0DD02146ABEB050B04F0B2F8DA457A
:109040002E443F6855464FF0000428BF5D46E1E7D7
:1090500001462046EFE7FFF792BDF8B54679014695
:10906000721E0546002393422D6803D30024A642B6
:1090700002D8F8BD0133F6E70F682846FFF7BAFDBE
:1090800001343946F3E72DE9F843068ACD1C07463B
:10909000FFF78CFD043E35440446B5FBF6F5F0B110
:1090A0004FF48073EDB28380C680013D0760814636
:1090B0004FF00008A84512D23846FFF777FD064664
:1090C00048B163790133637108F10108C9F8000000
:1090D00007608146EEE72046FFF7BFFF3446204693
:1090E000BDE8F88301210430FFF72BBD10B5012145
:1090F00004460430FFF731FDC0B220B92046BDE878
:109100001040FFF7AABF10BD1FB5039200220092C6
:1091100003AAFFF75DFF05B05DF804FB1FB50392DE
:109120000122009203AAFFF753FF05B05DF804FB8C
:1091300033DF704741DF7047064B10B500241C70C9
:10914000054B1C60BFF35F8F0449054800F04AF9E6
:10915000204610BDB1370020B437002050DC02009B
:10916000A837002007B500230DF107008DF8073060
:10917000FFF7C4FAF1EE103A23F09F03E1EE103A44
:10918000BFF35F8F0A4B4022C3F884219DF807008C
:10919000FFF7D8FA03F00EFD20B103B05DF804EB41
:1091A000FFF7C8BF20BF40BF20BF03B05DF804FB7E
:1091B00000E100E070B5244D044601212846FFF788
:1091C0009DFCBFF35F8F38B9042C0AD01F4B1A786F
:1091D0001AB1BFF35F8F286070BD1D4A1470012261
:1091E0001A701C4C1A4E6368BBB9FEF745FCFEF7BB
:1091F0009FFA0028FBD1164B1B78023B012B15D898
:10920000BFF34F8F1449154BCA6802F4E062134351
:10921000CB60BFF34F8F00BFFDE71B6830789847E6
:109220000028D6D0204600F0E7F8DCE703F0C2FCC7
:1092300008B1FFF77DFF4FF080430122C3F80025FE
:10924000BFF34F8F20BFFDE7B4370020B1370020B8
:10925000B0370020A837002000ED00E00400FA0538
:10926000026813685268934291BFD01A8068013037
:10927000801888BFC01A7047036881681A685B68E5
:109280008B4234BF01330023D31A584258417047F0
:1092900073B5002304460DF107000D468DF8073025
:1092A000FFF72CFA2046FFF7E7FF10B1237C002BD5
:1092B0003BD12368A1685E685A688A4234BF013294
:1092C00000225A6028B11A688A4234BF0132002253
:1092D0001A60E2686368511E072920D8DFE801F0B0
:1092E00004101F141F1F1F182A789A552046FFF7D5
:1092F000B7FF23689A68824200D29860002415E084
:109300002A8823F81620F1E72A6843F82620EDE79B
:10931000D5E9000103EBC603C3E90001E6E72946EE
:1093200002FB063003F03DFFE0E704249DF8070050
:10933000FFF708FA204602B070BD036818685B6842
:10934000C31A58425841704773B5002305460DF1C2
:1093500007000C4616468DF80730FFF7CFF9284670
:10936000FFF7EBFF002832D12B6819682EB91A6875
:10937000A868824238BF561C1E60EA686B68501E9F
:1093800007281ED8DFE800F0040E1D121D1D1D1653
:109390005B5C237000249DF80700FFF7D3F920469B
:1093A00002B070BD33F811302380F3E753F8213059
:1093B0002360EFE703EBC103D3E90023C4E90023F3
:1093C000E8E701FB0231204603F0EBFEE2E705246B
:1093D000E1E7836800225A60C3E904229A60DA60F8
:1093E0001A6070470B684A684360934208BF0023C5
:1093F000016008BF43607047436843B102689168E9
:1094000052680B449342436004BF0023436070479B
:1094100070B5446806460D46206818B1B368294601
:10942000984718B923682B60256070BD2468F3E75E
:109430004368186808B102681A6070474368186882
:1094400070474368186800B97047884203D10268C2
:109450001A600120704703460068F4E710B50D4913
:10946000A1F59472914201D800200FE08C1AE30F0D
:1094700003EBE4035B1002EBC30452F83330834286
:1094800005D802D204F10802ECE7606810BD21465D
:10949000E8E700BF5CE1020008B5FFF7DFFF024B21
:1094A000002808BF184608BD1FE0020010B504469A
:1094B000C0B2FFF7FBF8204610BD4FF08053D3F841
:1094C0003001A0F108035842584170474FF08053D3
:1094D000D3F83021082A06D1D3F83431052B02D82D
:1094E000024AD05C70470020704700BF62E1020072
:1094F000024AD2F80034002BFBD0704700E0014054
:1095000010B5FFF7DAFF40B14FF080430022C3F8F7
:109510000C21C3F81021C3F83825FFF7CEFF00282F
:1095200046D04FF08052654BD2F80414C3F8201592
:10953000D2F80814C3F82415D2F80C14C3F828156F
:10954000D2F81014C3F82C15D2F81414C3F830153F
:10955000D2F81814C3F83415D2F81C14C3F8401507
:10956000D2F82014C3F84415D2F82414C3F84815CF
:10957000D2F82814C3F84C15D2F82C14C3F850159F
:10958000D2F83014C3F85415D2F83414C3F8601567
:10959000D2F83814C3F86415D2F83C14C3F868152F
:1095A000D2F84014C3F86C15D2F84424C3F87025DF
:1095B000FFF78CFF18B1424B424AC3F88C26FFF7E5
:1095C00085FF18B1404BFB22C3F81825FFF77EFF3B
:1095D00070B14FF080414FF08053D1F8E42ED3F8B2
:1095E000583222F00F0203F00F031343C1F8E43E98
:1095F000FFF76CFF20B1354B4FF40072C3F84026E3
:10960000FFF75BFF48B14FF08043D3F80024D20747
:1096100044BF6FF00102C3F800242D4AD2F888300D
:1096200043F47003C2F88830BFF34F8FBFF36F8FDE
:109630004FF08053D3F83021082A0ED1D3F83431BB
:10964000052B02D8234AD35C3BB14FF01023D3F84B
:1096500008224FF08043C3F858254FF01023D3F869
:109660000022002A03DBD3F80432002B22DA1A4945
:1096700001234FF01020C1F804351224FFF738FF02
:10968000C0F80042FFF734FFC0F80442FFF730FF94
:109690000023C1F80435FFF72BFFBFF34F8F0C49B0
:1096A0000E4BCA6802F4E0621343CB60BFF34F8FE6
:1096B00000BFFDE70A4B0B4A1A6010BD00C0004016
:1096C000005000404881030000F00040009002403C
:1096D00000ED00E05CE1020000E001400400FA055A
:1096E0007C2A00200090D003074B1B5C1F2B8ABFF5
:1096F000064A4FF0A04203F01F03D2F80405D840F9
:10970000C04300F0010070476CE10200000300500C
:10971000074B1B5C1F2B86BF064903F01F034FF04E
:10972000A041012202FA03F3C1F80C35704700BFD3
:109730006CE1020000030050074B1B5C1F2B86BF2F
:10974000064903F01F034FF0A041012202FA03F380
:10975000C1F80835704700BF6CE1020000030050FB
:1097600008B50020FFF7E8FF0120FFF7E5FF022022
:10977000FFF7E2FFBDE808400320FFF7DDBF08B5B3
:109780000020FFF7C5FF0120FFF7C2FF0220FFF70F
:10979000BFFFBDE808400320FFF7BABF0A4B185CC3
:1097A0001F288ABF094B4FF0A04300F01F00D3F8D9
:1097B00004250121814021EA02000A40C3F808057E
:1097C000C3F80C25704700BF6CE102000003005095
:1097D000074B1B5C1F2B8ABF064A4FF0A04203F0C9
:1097E0001F03D2F81005D840C04300F001007047B5
:1097F00068E10200000300500B2809D00C2809D0B2
:10980000182809D019280CBF03204FF0FF307047EB
:10981000002070470120704702207047014B185C00
:10982000704700BF68E10200C20710B504460CD5BE
:109830004FF0A0430322C3F83427C3F83827C3F8F6
:109840003C27C3F84027FFF78BFFA3070AD54FF04B
:10985000A0430C22C3F82C27C3F83027C3F8602795
:10986000C3F8642710BD000038B5074C051E04F18D
:10987000080318BF1C4623682BB11A6822605B6876
:1098800028469847F7E738BDC037002020B9054B78
:1098900001225A70FFF7E8BF012802D1014A9070F7
:1098A000F8E77047B837002020B9034B01225A70FF
:1098B000FFF7DABF704700BFB837002038B50E4C4D
:1098C0002378B3B90D486360A3602361E36000F0BF
:1098D000E7F8054603F06EF908B900F0EDF801234A
:1098E0002370074BD3F800340BB10123A370284633
:1098F00038BD8525F5E700BFB83700208D980200F8
:109900000000014037B50D4C00230DF107008DF824
:109910000730FEF7F3FEE368013BE360E36833B929
:10992000074BD3F8005415B900F0D8F8A5709DF88E
:109930000700FEF707FF03B030BD00BFB8370020B7
:1099400000000140012813B50CD0032820D038B9FD
:10995000134B0122C3F88020BFF34F8FBFF36F8FEB
:1099600002B010BD0F4C00230DF107008DF8073039
:10997000FEF7C4FE23780BB9FFF7A0FFE3689DF85C
:1099800007000133E3600123A370FEF7DBFEE7E786
:1099900000F092F802B0BDE81040FFF7B3BF00BF7F
:1099A00000E100E0B83700201FB503788DF80030E3
:1099B0004368019383688DF80830C368054A0393B0
:1099C000054B684653F8213052F82110984705B0EE
:1099D0005DF804FBCC370020D43700201FB5037896
:1099E0008DF800304368019383688DF80830C368B0
:1099F000054A0393054B684653F8213052F821106D
:109A0000984705B05DF804FBCC370020D437002020
:109A1000F0B5194B90F800C0DFF86CE043F82C204B
:109A2000164B16460A6943F82C204B7F0EF80C3073
:109A30000C4607460FCC89B06D460FC594E80F0061
:109A400085E80F003B78CDF810C01EF803304BB10D
:109A5000002E0B4A694608BF3246381D00F000FE52
:109A600009B0F0BD002E074A694608BF324607F12B
:109A70000C0000F0ABFBF3E7D4370020CC3700201C
:109A8000A9990200DD990200DC37002000F1804036
:109A9000002382B0036003680193019B02B070470A
:109AA000044A137923B90121106091801846704748
:109AB00085207047E0370020074B1A68D20704D48E
:109AC000C02283F8002301221A604FF08043012254
:109AD000C3F81825704700BF00E100E04FF0804256
:109AE00008B50223C2F808334FF48270FFF7CEFFA7
:109AF0000123D360D2F81834DB03FBD408BD000087
:109B00004FF0804110B5D1F8003163B14FF480704F
:109B1000FFF7BCFF0D4B58790122C1F8082310B99B
:109B20005A711B6898474FF08042D2F8043163B1F4
:109B30004FF48270FFF7AAFF0223C2F80833034BE9
:109B4000BDE810401B680120184710BDE037002019
:109B500000F1804000F5C040002382B0036003683C
:109B60000193019B02B0704703681F2B83BF03F072
:109B70001F03036001484FF0A040704700030050EE
:109B800007B5019001A8FFF7EFFF019B00EB8300F1
:109B9000D0F8003723F44033C0F80037D0F800374E
:109BA00043EA0141C0F8001703B05DF804FB000070
:109BB000054B4FF0FF32072843F8202084BFC01820
:109BC00080F85820704700BFE837002038B51E4C99
:109BD00094F86A30ABBB4FF6FF71FF205A09012A97
:109BE0000CBF0A464FF0FF3203F01F05EA40D207D0
:109BF00048BFE21803F1010348BF82F83000302B60
:109C0000ECD10021C8B20131FFF7D2FF0C29F9D104
:109C1000062200210D4803F0EDFA0D4BC02283F817
:109C2000062340221A604FF4BE70FFF791FF094BE4
:109C30004FF00042C3F80423012384F86A30002067
:109C400038BD0820FCE700BFE83700204C38002072
:109C500000E100E000600040034B93F86A00003828
:109C600018BF0120704700BFE8370020F7B53D4F0F
:109C70003B18044693F93030002B71DA8B78C3F32C
:109C80004003002B0BBF082500250C20082085422F
:109C900002D1042003B0F0BD57F82560013647D14A
:109CA00038196EB247F8252080F8306013B97B1957
:109CB00083F858408B785A071AD4D8073AD501A8A8
:109CC0000194FFF751FF019B00EB8300D0F80037B0
:109CD00023F00203C0F800372348E20804F0070C21
:109CE000012303FA0CF310F802C043EA0C03835477
:109CF00088780B7810F0020028D0AD0005F180457F
:109D000005F5C0452402D5F8102522F44F3222F47F
:109D10004072C5F810251B04D5F8102504F47C54B6
:109D200003F440331C431443C5F810450020B1E749
:109D30000135ACE701A84A780194FFF715FF019BB4
:109D400003F5E073920040F82320C5E7083E47FA88
:109D500086F797F8604044EA831387F8603099E704
:109D6000082097E7E83700204C38002073B5244DD1
:109D70002E18044696F93020072A1DDD083A45FAC8
:109D800082F595F860309B09032B10D1019001A852
:109D9000FFF7EAFE019BD0F81015D94001F0010150
:109DA0000231204602B0BDE87040FFF7E9BE012B4A
:109DB0000CBF02210321F4E7D3B2072B1DD8930077
:109DC00003F1804303F5C043D3F8100540F00100D0
:109DD000C3F8100502F1400040B2800080B2FFF7E6
:109DE000B7FE51B196F9303055F823302BB101232D
:109DF00003FA02F2034BC3F8042302B070BD00BFA4
:109E0000E83700200060004007B5019001A8FFF787
:109E1000ABFE019BD0F81005D84000F0010003B064
:109E20005DF804FB2DE9FF470024CDE90244584DBD
:109E30004FF48072012102F1804303F5C04390B2D8
:109E40001B68012B06D1D5F804330B4202D0FFF773
:109E50007FFE0C430432B2F5907F4FEA4101EAD114
:109E60004B4BD3F87C31012B11D14FF4BE70FFF76F
:109E70006FFE4FF0A04344F00044D3F82025029237
:109E8000C3F82025D3F820280392C3F82028E3B292
:109E9000D3B1404F00250126344210D0AB0003F16E
:109EA000804303F5C043D3F81005D3F8101557F8D5
:109EB000253023B1C1F30141C0F305209847013596
:109EC000082D4FEA4606E7D1002C59DA314D324CC5
:109ED000324E4FF00008012716F9013B5A1C3CD0C6
:109EE000C3F3C20104A801445FFA83F911F8081C06
:109EF00003F03F0203F0070307FA03F319422CD0E3
:109F000001A80192FFF730FE019B03F5E07350F8C2
:109F10002330C3F3014ABAF1020F0CBF032102211F
:109F20001046FFF72DFE01A80192FFF71DFE019BD1
:109F300007FA03F3C0F82035AB1893F9303055F821
:109F4000233053B14FEA9911032904D0BAF1020F1B
:109F500019D1012901D11046984708F10108B8F13B
:109F6000040FB9D14FF0A043D3F820250292C3F8D3
:109F70002025D4F820350393C4F820351343A7D106
:109F800004B0BDE8F087BAF1030FE6D10229E1E79A
:109F900000600040E83700200003005048380020EF
:109FA000014B1B68184700BF543800200E4B9842E5
:109FB00037B50C4602D0002003B030BD00230DF1B0
:109FC00007008DF80730FEF799FB084B1D7915B98E
:109FD00001221C601A719DF80700FEF7B3FB002DEB
:109FE000E9D01120E8E700BF0020004054380020ED
:109FF0000023435082B043580193019B02B0704745
:10A000000A4610B54FF48E71FFF7F2FF136A91689C
:10A01000C95C136A01331362C0F81C1510BD0246F7
:10A0200008B500684FF49271FFF7E2FF10684FF433
:10A030008471FFF7DDFF136801221A6008BD8B6988
:10A040000A4610B54FF4847123B9FFF7D1FFD0F859
:10A05000183510BDFFF7CCFF536AD168D0F818054A
:10A06000C854536A01335362F3E700001FB501235C
:10A070008DF80030044BCDE90110D3E90012684699
:10A08000904705B05DF804FB5C38002030B54D4DBD
:10A09000D5F804339A0585B051D5D5F82431002B75
:10A0A0004DD04FF492712846FFF7A2FF4FF4017391
:10A0B000C5F80833444B93F829200AB901226A6095
:10A0C000404902228DF80020D1F88024C1F8802474
:10A0D00003929A690292DA6801920022C3E9062289
:10A0E0006846D3E9001290473648D0F81C315BB17E
:10A0F000354A5169136A99424DD992F82830002B9C
:10A1000049D11146FFF77CFF2E48D0F84431002B8F
:10A1100056D04FF4A271FFF76BFF2B4B93F8292019
:10A120000AB1012202609A69002A49D0586AD968A6
:10A1300000229A6105B0BDE83040FFF797BFD5F81F
:10A1400004335B07D0D5D5F80831002BCCD01E4C9A
:10A150001C482146FFF773FF636AA2699A42C3D184
:10A16000E369E1684BB1A3612369E3600023606A9E
:10A17000E3616362FFF77AFFB6E794F829300BB921
:10A1800001236B600F4B4FF40172C3F808230023C7
:10A19000606AA361EEE70B484FF48E71FFF728FF6A
:10A1A0005369002BB0D051690291002391688DF85A
:10A1B0000030019153616846D2E900139847A3E744
:10A1C00005B030BD002000405C3800202DE9F84388
:10A1D000604D90F804802C2303FB0853064693F847
:10A1E0002A300C469146002B40F0AF805A49006857
:10A1F000FFF7DCFE0746002840F0A9802268531CC8
:10A2000010D01F2A87BF554902F01F0313464FF095
:10A21000A0410120984003F5E073C1F80805032030
:10A2200041F823006168481C0DD01F298BBF01F045
:10A230001F030B4649484FF0A04003F5E0734FF071
:10A24000000C40F823C03068A369C0F8243594F8A6
:10A2500014C0637DBCF1010F4CEA0303C0F86C35F8
:10A26000C0F81415C0F80C252BD1A368591C0DD0CB
:10A270001F2B8BBF03F01F021A4638494FF0A04135
:10A2800002F5E0724FF0000C41F822C0E1684A1C70
:10A2900013D01F2987BF314A01F01F0C8C464FF0A5
:10A2A000A0424FF0010E0EFA0CFE0CF5E07CC2F855
:10A2B00008E54FF0030E42F82CE0C0F80815C0F88E
:10A2C00010352C2202FB08F2AB18C3F80490236966
:10A2D000AB50B9F1000F20D04FF48E71247FFFF7FF
:10A2E00087FE4FF4A2713068FFF782FE32681C4B84
:10A2F000C2F80433130B42F307326101002AC9B2DA
:10A300001EDB1848841884F800130121520903F059
:10A310001F0301FA03F340F8223033680422C3F824
:10A3200000252C2303FB08530022C3E9062283F8EF
:10A3300029205A61012283F82A203846BDE8F88393
:10A34000094A03F00F03D154E7E70827F5E711277F
:10A35000F3E700BF5C3800208DA00200000300502E
:10A360008000020000E100E014ED00E00279044BFF
:10A370002C2101FB02335869003818BF01207047B7
:10A380005C3800202DE9F84F064690F80480894695
:10A390009246FFF7EBFF044600283CD1204F2C25C6
:10A3A00008FB057B4FF48E71CBF814A0CBF8089016
:10A3B000CBF820008BF828003068FFF719FE3068D2
:10A3C000012383605946FFF71BFEDBF804305D462E
:10A3D0001BBB3068DBF814402B6A9C4211D83368F1
:10A3E000D3F81C21002AFBD00122DA6000202C23A4
:10A3F00003FB087700237B61BDE8F88F95F82830D0
:10A400003BB9D0F81C31002BF8D05946FFF7F8FDC6
:10A41000E2E70F20EBE71120EEE72046ECE700BF74
:10A420005C3800202DE9F0473A4D07792C2303FBD7
:10A43000075306465C6824B103684FF40170C3F803
:10A4400008032C2303FB0753986950B1D8690028EF
:10A4500041D024B133684FF40172C3F804231124AE
:10A4600036E09A61D9605862D8612C2303FB075308
:10A4700093F829301BB910B93046FFF7D0FD4FF0E3
:10A480002C0808FB075A3068DAF80430002B37D163
:10A490004FF4A271D046FFF7ABFD3068D0F824919D
:10A4A000D0F80831D0F84441CBB914B9B9F1000F54
:10A4B000F3D02C2303FB07550023AB61B9F1000F48
:10A4C00024D12CBB95F8291033680122B1B11A6050
:10A4D0002046BDE8F0871961DA610120C5E7B9F1CE
:10A4E000000FE6D1002CE4D14146FFF7A8FDDAF8D1
:10A4F0002430DAF818209A42CFD8DAE75A60E7E732
:10A500004FF40173C0F804330024E1E70324DFE7CC
:10A510000F24DDE75C3800200023435082B043580D
:10A520000193019B02B070471FB501238DF80030E5
:10A53000044BCDE90110D3E900126846904705B0FD
:10A540005DF804FB883800207FB5434AD2F82461C7
:10A55000002E60D010464FF49271FFF7DDFF02230A
:10A560008DF80030D2F88034C2F880340393D2F8EA
:10A570003C350293394BDA6801920022C3E9062286
:10A580006846D3E9001290473348D0F8443173B19C
:10A590004FF4A271FFF7C0FF304B9A693AB1002225
:10A5A000C3E90622D968D0F83C05FFF7BDFF2A4869
:10A5B000D0F82031ABB14FF49071FFF7ADFF01231C
:10A5C000C360264B5A6962B1D0F84C150291002243
:10A5D00099688DF8002001915A616846D3E900120C
:10A5E00090471D48D0F858319BB14FF4AC71FFF73C
:10A5F00093FF1A4B5A6962B1D0F84C1502910022B0
:10A6000099688DF8002001915A616846D3E90012DB
:10A61000904704B070BDD2F81031002BB4D04FF485
:10A6200088711046FFF778FF0C4BD2F83C0599690A
:10A630008842A9D1DC69D96864B1D2F8005225F00A
:10A640002005C2F800521A699C61DA60DE61FFF7EA
:10A650006BFF99E79C61FAE70020004088380020F2
:10A660002DE9F843664E90F80480242303FB086329
:10A67000044693F820300D469146002B40F0BC80F4
:10A6800060490068FFF792FC0746002840F0B6805A
:10A6900029684B1C10D01F2987BF5B4A01F01F039C
:10A6A0000B464FF0A0420120984003F5E073C2F83A
:10A6B0000805032042F823006A68501C0DD01F2AA9
:10A6C0008BBF02F01F0313464F484FF0A04003F525
:10A6D000E0734FF0000C40F823C02068AB69C0F86D
:10A6E000243595F814C06B7DBCF1010F4CEA0303CF
:10A6F000C0F86C35C0F80C15C0F814252BD1AB6828
:10A70000591C0DD01F2B8BBF03F01F021A463E4968
:10A710004FF0A04102F5E0724FF0000C41F822C06A
:10A72000E9684A1C13D01F2987BF374A01F01F0C64
:10A730008C464FF0A0424FF0010E0EFA0CFE0CF5C5
:10A74000E07CC2F808E54FF0030E42F82CE0C0F8B8
:10A750000815C0F81035242202FB08F2B318C3F81C
:10A7600004902B69B350B9F1000F2FD04FF48871CA
:10A770002A7FFFF7D1FE20684FF49071FFF7CCFEDF
:10A7800020684FF49271FFF7C7FE20684FF4A27162
:10A79000FFF7C2FE4FF4AC712068FFF7BDFE2368DF
:10A7A0001A49C3F80413190B43F307335201002B62
:10A7B000D2B21CDB1648C51885F8002301225B09BC
:10A7C00001F01F0102FA01F140F82310236808226A
:10A7D000C3F80025242303FB08660023C6E90633DB
:10A7E0007361012386F820303846BDE8F883094BB1
:10A7F00001F00F015A54E9E70827F5E71127F3E7BD
:10A800008838002049A502000003005010034200D0
:10A8100000E100E014ED00E00279044B242101FB8B
:10A8200002335869003818BF01207047883800206B
:10A8300001F06043B3F1005F2DE9F047064688461A
:10A8400092463BD190F80490FFF7E6FF04460028BB
:10A8500036D11D4F3068242505FB09754FF49071E2
:10A86000C5F814A0C5F80880FFF756FE4FF4AC7188
:10A870003068FFF751FE33686A69A968C3F8441568
:10A88000C3F8482501229A606A68DAB9D3F8202112
:10A89000D3F858011AB90028F8D00F2007E0002893
:10A8A000FBD10122DA60D3F85821002AFBD02423FF
:10A8B00003FB097700237B61BDE8F0871020FBE7ED
:10A8C0001120F9E72046F7E788380020F8B501F0B5
:10A8D0006043B3F1005F04460F465ED10379304D0B
:10A8E000242101FB0351496821B100684FF404762B
:10A8F000C0F80863242000FB03539E6956B1D86951
:10A90000002839D021B123684FF40472C3F804231E
:10A91000112030E09A61DF60DE6120684FF48871B9
:10A92000FFF7FAFD20684FF4A271FFF7F5FD2368E9
:10A93000C3F83475C3F8382516BB01221A60247990
:10A94000242202FB045252680ABBD3F81011D3F838
:10A950004421D3F82401114302D10028F5D00A463E
:10A96000242303FB04550023984218BF03209A4276
:10A97000AB6118BF0F20F8BD1F61DA610126CCE77B
:10A98000D3F8002242F02002C3F80022D7E74FF4A8
:10A990000472C3F804230020EDE71020EBE700BFAA
:10A9A000883800201F288ABF094B4FF0A04300F0D1
:10A9B0001F0003EB8000D0F8003723F44033C0F8C9
:10A9C0000037D0F8003743EA0141C0F8001770475C
:10A9D000000300500220FEF7E1BE00002DE9F04721
:10A9E00080460D46FEF708FF0328044610D8012DC7
:10A9F00010D0022D30D05DB91A48FDF767FC1A4B14
:10AA000004EB440213449D78184B1B5DAB4219D0F4
:10AA1000BDE8F087144E00EB4003F218F55C537864
:10AA2000470053B1DFF84C900E484A464FF480413E
:10AA3000FDF71EFC08B989F8008027443E440B4B03
:10AA4000B2781A55002DE3D0094B1B68002BDFD0DC
:10AA50002846BDE8F047184700EB4004024804448C
:10AA60006578EFE7A02A0020AE380020C938002022
:10AA7000C4380020AC38002000780221FFF7AEBFB8
:10AA800008B5094B1B7853B10020FEF755FE012095
:10AA9000FEF752FEBDE808400320FEF74DBEBDE8BC
:10AAA0000840FEF75DBE00BFAD380020F8B57A4C17
:10AAB000237805461BB100232370FFF7E1FF172D14
:10AAC00000F28780DFE805F00C1717425364757FAA
:10AAD000878C878C949999999999C3C8D0D8E3E3C6
:10AAE000FFF7CEFF6D48FDF7F1FB6D4B00220446EA
:10AAF0001A702046F8BD0020FEF7F6FDF0B10020E8
:10AB0000FEF71AFE022D0CBF4FF4E1644FF47A6495
:10AB1000634B1D7000254FF400464FF47A702946B0
:10AB20004FF4FA620023E4FB060102F0D7F92A464B
:10AB30000146BDE8F8405948FDF79ABBFEF7E8FD2D
:10AB4000022D0CBFC8244FF4C874E1E70020FEF7C3
:10AB5000CBFD40B10020FEF7EFFD4FF44874504BA1
:10AB600003221A70D6E7FEF7D3FDC824F7E70020CA
:10AB7000FEF7BAFD38B10020FEF7DEFD4FF47A642F
:10AB8000474B0422EDE7FEF7C3FD4FF4C874F7E727
:10AB90000020FEF7A9FD48B10020FEF7CDFD404B97
:10ABA00005221A7040F6CD410022C2E7FEF7B0FD43
:10ABB000F5E70020FEF7F2FD394B06221A7000225D
:10ABC00040F26661B5E70020FEF7A2FD344B072294
:10ABD0001A7000248DE701202070FEF7DFFDEEE7FC
:10ABE00001202070FEF7DAFD00224FF40051A0E7AB
:10ABF000FEF7C5FD2A4B0C22EAE72A482A4EFDF74C
:10AC000065FBD5F1110504461CD0D8B9012D13D030
:10AC1000C820454321464FF400474FF47A704FF463
:10AC2000FA620023C5FB070102F058F922460146EB
:10AC30001C48FDF71DFB04460220FEF769FD0123B9
:10AC4000337056E70220FEF777FD0023F8E7FFF7A1
:10AC500017FF134B1222BBE7FFF712FF0020FEF78E
:10AC600057FD0F4B1322B3E7FFF70AFF0120FEF752
:10AC70004FFD0B4B1422ABE7FFF702FF0020FEF75E
:10AC800047FD0120FEF744FD054B1522A0E7FEF726
:10AC900076FD034B1D709CE7C0380020C02A0020C1
:10ACA000C8380020802A0020AD380020044B1B68E3
:10ACB000DB0703D5034B1878FFF7F8BE704700BFDA
:10ACC000BC380020C8380020032801D8FEF780BD1A
:10ACD00000207047044B1B6813F0010301D0FFF7FD
:10ACE000E5BE1846704700BFBC38002038B51C4B85
:10ACF00018601C4B10F00204054619601AD01A4B5C
:10AD00001A480E221A700F22DA7010229A7111223C
:10AD10005A72042140F23332FDF7E6F8044648B98E
:10AD2000FDF73AF9044628B90146114A1148FDF7E2
:10AD30008DFA0446EB0711D50120FEF775FD6CB9BD
:10AD400021460D4A0D48FDF781FA044630B9BDE8A9
:10AD500038400B4A0B480121FDF778BA204638BD30
:10AD6000BC380020C4380020AE38002094E1020036
:10AD700079AA0200B8E10200ADAC0200BCE1020019
:10AD8000D5A90200B4E10200032811D8012A0AD192
:10AD900001290FD100F10E02D2B20D4B00EB4000A1
:10ADA0001A54002070470129F7D0022904D049B174
:10ADB000072070470022F8E7054B00EB40001844DD
:10ADC0004270EEE7024B00EB400018448270E8E767
:10ADD000AE380020032808B506D8FEF71FFD032172
:10ADE000FFF7E0FD002008BD0620FCE708B50122C2
:10ADF00002210020FFF7C8FF08B1072810D1072261
:10AE000002210120FFF7C0FF08B1072808D1002167
:10AE10000A220846FFF7B8FF10B1072808BF002034
:10AE200008BD00000388102B10B502D0112B1ED0D6
:10AE300010BD1A4C2168B1B901220846FFF7A4FFE2
:10AE400008B1072824D1072202210120FFF79CFF27
:10AE500008B107281CD1042202210020FFF794FF2B
:10AE600008B1072814D1236801332360E0E70B4AB7
:10AE70001368013B1360002BDAD1FFF7B7FF0028FE
:10AE8000D6D0074B1B68002BD2D0BDE81040184726
:10AE9000034B1B68002BE6D09847E4E7D43800202A
:10AEA000D038002008B50020FFF794FF08B106282D
:10AEB00006D10120FFF78EFF10B1062808BF002041
:10AEC00008BD00000D4B10B518600C4629B10120DB
:10AED000FFF7FAFE40B102232370094B1B6853B9F8
:10AEE000BDE81040FFF782BFFFF7EEFE08B10B236D
:10AEF000F2E72070F1E7002010BD00BFD03800203D
:10AF0000D438002075DF704776DF70477FDF7047E9
:10AF10008FDF7047FDF756B870B50378012B0446F4
:10AF20003BD0022B2AD043BB1F4C204D2088284405
:10AF3000FDF7A6FB2388E85CFDF7B8FB2388013307
:10AF40009BB21D44238015F8012C0A2A05D00D2A36
:10AF500003D0174A12889A420FD8144D154E2288F2
:10AF60002946304601F040FD082804D01328F6D0C9
:10AF700008B1FDF727F80023238070BD0E4B0F4862
:10AF80000F491B1ADB081B0443F00100FCF71CFDF2
:10AF90006068BDE87040FDF715B8074B07480949E0
:10AFA0001B1ADB081B04EFE7CC390020D83800203F
:10AFB000F62A00205C3B002070D9020048D902002C
:10AFC000C0E10200F2E102000146014801F027BCA5
:10AFD0005C3B00200388212B13B504460FD80F2BB0
:10AFE00011D9103B112B0ED8DFE803F00F280D47C5
:10AFF0000D0D0D0D0D0D0D370D0D0D4E0D543B2B83
:10B0000056D0562B54D002B010BD81882B48002258
:10B0100001F03AFD08B1FCF7D5FF0720FFF75AFE13
:10B0200008B1FCF7CFFFA188254800F05BFD0028A0
:10B03000E9D002B0BDE81040FCF7C4BF214B224864
:10B04000A2882249C01AC008237A000440F00300F5
:10B0500002B0BDE81040FCF7C4BC037A022BD2D189
:10B06000184B19481A49C01AC008000440F00300E0
:10B0700002B0BDE81040FCF7A7BC00231A468521AA
:10B080008088FFF743FFD2E700F108018088FFF7CF
:10B0900039FFCCE7002380888DF8043001A98DF8B2
:10B0A0000530FFF735FF0028ADD0FCF78BFFAAE78E
:10B0B000A0881321FFF728FFB9E700BF5C3B002001
:10B0C000F82A002048D9020070D902001EE20200CE
:10B0D0004CE2020008B5074801F0B0FA08B1FCF7ED
:10B0E00071FF0120FFF7F6FD18B1BDE80840FCF73D
:10B0F00069BF08BD883B00202DE9F8430B78012B80
:10B1000006460D4623D0022B5FD0002B6BD1374B68
:10B11000374C3849E41AE408240444F00304204678
:10B12000FCF752FC698805F10E02304601F0ACFCD8
:10B1300008B1FCF747FF304601F022FC08B1FCF7EC
:10B1400041FF20462C49BDE8F843FCF73DBC284CA4
:10B15000264B8E688F89DFF8AC90E41AE40824044B
:10B1600044F001040025BD4219D3F31913F8013C42
:10B170000D2B25D0DFF890803A463146404601F04D
:10B1800033FC054678B31128F6D002461B49204609
:10B19000FCF71EFC2846BDE8F843FCF713BF705DC2
:10B1A000FDF784FA804648B11128F8D020462A4697
:10B1B0004946FCF70DFC4046FCF704FF0135D2E799
:10B1C0000A20FDF773FA1128D3E7084B08480C4909
:10B1D000C01AC008000440F00300FCF7F5FBBDE80E
:10B1E000F843FFF777BFBDE8F88300BF48D90200F6
:10B1F00070D902006AE202007EE20200D2E202009E
:10B20000FBE20200ACE202005C3B00201FB50378C9
:10B21000052B12D0062B17D0042B2AD1164B17481A
:10B220001749C01AC008000440F00300FCF7CCFB2B
:10B2300004B0BDE81040FFF74DBF4068C8B104B08E
:10B24000BDE81040FCF7BEBE41680B4C0B488B7844
:10B250004A78001B8C7903944C7902940C79019400
:10B26000C008C97800910004064940F00300FCF7CB
:10B27000CEFB04B010BD00BF48D9020070D9020057
:10B2800037E3020009E3020010B504460020FFF78F
:10B2900021FD08B1FCF796FE24B9FFF703FE08B1C3
:10B2A000FCF790FE012010BD0A8840F677239A42F1
:10B2B00013B50C4617D10D4B0D480E49C01AC008E6
:10B2C000000440F003000190FCF77EFBA3880A4ACB
:10B2D0000A490198033B9BB213801A4602B0BDE8AD
:10B2E0001040FCF77EBB02B010BD00BF48D9020081
:10B2F00070D9020047E30200F62A002063E302004F
:10B30000042808B506D00A2810D1BDE8084000205E
:10B31000FDF750BF064B13215888FFF7F5FD30F0BD
:10B32000080303D0BDE80840FCF74CBE08BD00BFD1
:10B330005C3B002008B50849084800F0B1FD08B1A1
:10B34000FCF740FE0548F72100F0BEFD18B1BDE84E
:10B350000840FCF737BE08BDA9B20200743B0020CC
:10B3600000B54FF480418BB00020FCF78FF908B195
:10B37000FCF728FEFCF7C8F8FCF736FF08B1FCF72D
:10B3800021FE4B4D0FCD04AC0FC495E80300494B93
:10B39000494A00934FF4807384E80300CDE9022307
:10B3A0000193464A0723694604A8FDF711F908B13D
:10B3B000FCF708FE42490120FFF798FC08B1FCF7B2
:10B3C00001FE04A90020FFF77DFD08B1FCF7FAFD9E
:10B3D0000822002104A801F00DFF3A4C3A4B0493D7
:10B3E00004A8059400F040FB08B1FCF7EBFDFDF765
:10B3F000A3FE08B1FCF7E6FD01F09EFB08B1FCF7E7
:10B40000E1FD002304A90120049301F027FC08B109
:10B41000FCF7D8FD04A801F0F3FC08B1FCF7D2FD5D
:10B42000FFF788FF294B0493294B2A4804A9CDE94B
:10B43000053401F03FFA08B1FCF7C4FD10220021E9
:10B440000DEB020001F0D6FE0123234A23488DF8BC
:10B45000143004A98DF81C3001F095F808B1FCF700
:10B46000B1FD1F4A1D48032101F062F808B1FCF745
:10B47000A9FD1A480022042101F071F808B1FCF777
:10B48000A1FD184801F05CFE174B18481849C01A76
:10B49000C008000440F00300FCF796FAFFF71AFE1C
:10B4A000FCF746F90028FBD1FDF75CFEF8E700BF8A
:10B4B000D4E30200D83B0020D83C002019AF0200A2
:10B4C00001B30200E02A0020C9AF0200F9B0020077
:10B4D00015AF02005C3B00200DB20200883B00204B
:10B4E00000E402008BE3020048D9020070D9020098
:10B4F000AFE302000369C26893429CBF80681B18D7
:10B50000013B981A70472DE9F843D0E902940546AB
:10B51000A9EB04084068904520440F46144404D920
:10B5200001F03FFEEC60BDE8F8834246A4EB09045D
:10B5300001F037FE6868224607EB0801F0E72DE9C5
:10B54000F843C5680646894617464FF00008346937
:10B55000B3687068A54228BFE418013C621B5C1BFD
:10B56000BC4228BF3C46944228BF14464946284462
:10B57000224601F016FEB3682544AB4208BF002501
:10B580003F1BA044A144F560E1D14046BDE8F883EB
:10B5900010B5114C114AA2610223C4E90433104BC7
:10B5A000E361A2644FF400730E4A0F492362E26420
:10B5B00000231022E01DA3626362E362A36563655A
:10B5C000E365226501F049FE0849204601F045FE89
:10B5D0002023A37110BD00BFD83D002004E4020069
:10B5E000603E0020503E00200DE4020011E4020005
:10B5F00070B5164B182400FB04451D4404FB0033B2
:10B600001646DC6A012C0ED0022C18D0E4B928466C
:10B61000FFF770FF864204D832462846FFF773FFD3
:10B620003446204670BD2846FFF764FF8642344604
:10B6300028BF044622462846FFF765FFF1E7284663
:10B64000BDE87040FFF77BBF0024EAE7D83D00204B
:10B65000FFF79EBF64DF704730B5C8B1F2B1002478
:10B66000651C8D4206DA1588A54212D805196D7839
:10B670009D420ED1A14211D9005D48B1013880B27E
:10B6800030B10234A3B210FA84F4A14206DB138075
:10B6900030BD055D01352C44A4B2E1E70020F7E799
:10B6A000F0B587B0002306460C461046ADF80630CC
:10B6B00002AA10230DF105018DF80530FFF7CAFF2E
:10B6C00016B9002007B0F0BD0028FAD19DF805504A
:10B6D000042D29D0102D29D0022DF3D10323BDF83C
:10B6E00006206AB90DF1060221463046FFF7B4FF85
:10B6F000BDF806301BB92B463046FFF7ADFF0446B8
:10B70000BDF80670002FDCD00025AC42D9D9E8196D
:10B710009DF8052002A9304401F0DBFC48B19DF8FA
:10B7200005301D44ADB2F0E70523D8E70625072311
:10B73000D5E70120C6E7000030B50B4B19680B4B6D
:10B740000022914201D1002009E09D788478A54231
:10B7500006D11D880488A54202D1054B186830BD6A
:10B7600001320433EDE700BF684000206C40002048
:10B77000604000202DE9F84F90F8C6A24FF0760BFC
:10B7800004460AFB0B0088469146FFF7D5FF0746A3
:10B7900068B3D4F8CC52052D29D804EBC5165A4607
:10B7A000A6F8D2920BFB0A4106F5357001F0F9FCC0
:10B7B000B8F1000FC6F84C730E4F14BF00230223DC
:10B7C00086F8D0323B6801359D42C4F8CC520ED188
:10B7D00004F534750026EB6F284698473B68013620
:10B7E0009E4205F18005F6D30023C4F8CC32BDE8B3
:10B7F000F88F00BF6840002030B5A1B004460D4668
:10B800007C22002101A801F0F5FC03238DF804300F
:10B81000044BADF806501B6802940BB101A8984781
:10B8200021B030BD604000202DE9F041074691F87D
:10B83000C60276234FF00008A0B081F8C88200FB52
:10B8400003100C461546FFF777FF064660B17C22D1
:10B85000414601A801F0CEFC01238DF80430ADF87B
:10B860000650029701A8B0472946204620B0BDE8FF
:10B87000F041FFF7C1BF000030B58BB00446202275
:10B880000D4602A8002101F0B5FC042200210DEBB9
:10B89000020001F0AFFC94F8C53294F8C61213B35D
:10B8A000013BDAB276234B43122000FB02332344E0
:10B8B0005B8A01339BB2ADF80430762303FB014170
:10B8C0002A460B89ADF8063003238DF80830019B1A
:10B8D000CDE90543064B0493064B02A9186800F016
:10B8E000FBFC0BB030BD762303FB0143DB88E2E7B2
:10B8F00029B8020084400020F0B5044689B0202217
:10B900000D466846002101F075FC94F8C7321E4AC6
:10B9100001331268DBB2934284F8C7324FF0000261
:10B920002AD294F8C632194F84F8C5220133DBB20B
:10B93000762113FB01F057F8237084F8C6322618DD
:10B9400027504B433271E358CDF81230104B02931D
:10B950000222104B8DF800200122ADF8102018684B
:10B9600003942A46694600F0B7FC18B12A462146DE
:10B97000FFF75AFF09B0F0BD84F8C82229462046D7
:10B98000FFF73AFFF6E700BF684000206C40002058
:10B9900029B80200844000202DE9F047044688B011
:10B9A0000D46164600212022684601F023FC94F83B
:10B9B000C6C294F8C51276231CFB03F2A0184FF000
:10B9C000120E07791EFB012301F1010C0A33BC455D
:10B9D00023441CD004F11C0C00F1220807F1FF39AC
:10B9E0009444CAB2974216D989451B8919D00EFBD7
:10B9F00001FA013338F80A2093422AD10CEB0A03EA
:10BA000094F8C522013284F8C5220131E9E71B8987
:10BA10000289934208D101232B70002008B0BDE8B1
:10BA2000F0870289934218D001339BB2ADF81030F1
:10BA30000B4B029300210B4B297004218DF8001051
:10BA4000ADF81220186803943246694600F044FCB1
:10BA5000E4E7013A9BB292B2E8E70023D0E700BFE7
:10BA600029B802008440002010B570B1026862B1AC
:10BA7000436853B1064900200860064901240C7050
:10BA800005490A60054A136010BD0E20FCE700BF9F
:10BA90006840002064400020604000208440002076
:10BAA00010B5044680B10C4B1B787BB1FFF744FE08
:10BAB00070B90A4A1368052B0CD80949246841F863
:10BAC00023400133136010BD0E20FCE70820FAE785
:10BAD0000020F8E70420F6E76440002068400020DA
:10BAE0006C400020F0B50D468BB0044600283BD0DA
:10BAF000204B1B78002B39D01F4B1B68002B35D0F7
:10BB000090F8C812002933D14FF4BA621B4F01914B
:10BB100001F070FB0199202202A801F06BFB38684C
:10BB2000294600F079FCE8B9154BC4F8CC0284F83A
:10BB3000C502A4F8C6021868206002238DF80830F8
:10BB40000126104BCDF81A00A4F8CA523868ADF897
:10BB500018602A4602A90594049300F0BDFB08B9B9
:10BB600084F8C8620BB0F0BD0E20FBE70820F9E7AF
:10BB70001120F7E764400020684000208440002046
:10BB80006C40002029B802002DE9FF410C46054613
:10BB900060B159B1974B1B7843B10388322B67D002
:10BBA00007D8112B00F01881302B1FD004B0BDE84E
:10BBB000F081332BFAD18288B1F8CA329342F5D1A1
:10BBC000C08891F8C6C291F8C562002800F0C08014
:10BBD000762101FB0C41002309798DF80F30731C8D
:10BBE0008B4200F0E68084F8C532A5E08388B1F886
:10BBF000CA229A42DAD1C3887BBB91F8C632762238
:10BC000002FB03130269C3F8062091F8C432827A5A
:10BC10001344062B0EDC81F8C432A9882046FFF7B6
:10BC20002BFE0028C2D0AA88214604B0BDE8F0410E
:10BC3000FFF7FABD062381F8C4326F486F4B704995
:10BC4000C01AC008000440F002000190FBF7BCFEDF
:10BC50006C490198FBF7B8FEDFE720460021FFF7AB
:10BC600089FDA988204604B0BDE8F041FFF744BE35
:10BC70008288B1F8CA329A4298D1C388002B57D132
:10BC800091F8C672762317FB03F701EB0708837A56
:10BC900098F804603344062B25DC88F8043012221F
:10BCA00012FB0672334605F10C012244002098F87D
:10BCB0000460B34201F10A0102F1120227D31222F9
:10BCC000013B02FB034394F8C62276213B4401FB6F
:10BCD0000242598A138999422AD2062E28D0A9886D
:10BCE00084F8C5629AE7062388F804304248434B3B
:10BCF000CA5B4549C01AC008000440F00200019028
:10BD0000FBF766FE41490198FBF75EFEC7E751F875
:10BD10000A6C42F8086C51F8066C42F8046C31F871
:10BD2000026C168050809080D08010810133BEE775
:10BD3000002384F8C532AA880DF10F012046FFF7D1
:10BD40002BFE002842D0AA882146FFF76DFD2DE783
:10BD5000762303FB0CF3122707FB0633B5F80AE042
:10BD6000294623447045BFF433AFCF89A7F5245744
:10BD7000082F08D8DFE807F014170507070707079B
:10BD80001A008F899F829F8A3FB1DF8A2FB11F8B54
:10BD90001FB15F8B002F7FF41BAF01300631E1E74D
:10BDA0008F89DF82EFE78F891F83ECE78F895F83BD
:10BDB000E9E701238DF80F302046AA880121FFF71B
:10BDC000D9FCA9882046FFF797FDEFE69DF80F30D4
:10BDD000002B3FF4EBAEEFE7B1F8CA3282889A420B
:10BDE00001BF002381F8C8324FF6FF73A1F8CA32B1
:10BDF000DCE600BF6440002088D9020048D9020078
:10BE000018E4020037E402007CE40200C2E402000D
:10BE100090DF7047A5DF7047B5DF70477FB500231F
:10BE2000ADF80810ADF80A106A4602A90646ADF84A
:10BE30000C30ADF80E300093ADF80430FFF7E8FF9A
:10BE4000054600B3114B124CE41AE408FDF724FB3D
:10BE5000240444F0010403460E4932462046FBF711
:10BE6000C0FDBDF80020BDF8023052EA030103D046
:10BE700009492046FBF7B5FDBDF804201AB1074972
:10BE80002046FBF7A5FD284604B070BD48D9020046
:10BE9000A8D9020028E5020072E50200B1E502001F
:10BEA00080B14FF0F7130360FB230371F723C380C6
:10BEB0001723038141F6FB32002301614381828114
:10BEC000184670470E20704730B1A1F11703E02BE0
:10BED00004D84180002070470E207047072070472B
:10BEE00013B5034680880C46B8B91A88242A00F096
:10BEF0009C8014D8112A74D0232A00F0A780102A1D
:10BF00003ED0A37A4BB1E1880020FFF783FF0028E1
:10BF100040F0A2804FF48073638102B010BD3A2AD2
:10BF200068D0552AEDD1DB88C988A072172B38BF9D
:10BF300017238B4228BF0B462381FFF76DFF60B1AB
:10BF4000FDF7AAFA4E4B4F4902464F481B1ADB0831
:10BF50001B0443F00100FBF73BFDE27A002AD0D13D
:10BF60002369002BCDD040F67721ADF8022022893D
:10BF7000ADF80010ADF80420694620469847C0E7A8
:10BF8000DB7B0A790A73012B13D0022B14D0E188D2
:10BF900023898B4205D20020FFF73CFF70B90123B3
:10BFA000E372217B637B8B42ABD20020FFF736FF2D
:10BFB000A7E70B88E380EAE74B88FBE7112802D16B
:10BFC0000123A372EDE7FDF767FA2D4B2F490246D7
:10BFD0002D481B1ADB081B0443F00100FBF7F8FC9B
:10BFE000DFE7F723CB8017230B8141F6FB33488132
:10BFF0008B8186E75B89CA88934228BF1346172B3B
:10C000000A6938BF17230B8162B1C97A51B140F672
:10C010007721ADF80010ADF80200ADF804306946A4
:10C0200020469047002363816BE71A7A0B694A73B5
:10C03000002B3FF466AF4DF67A218DF80500ADF880
:10C040000010ADF802008DF8042095E7197A237BE3
:10C05000994228BF1946A9E711283FF45EAFFDF7C2
:10C060001BFA074B0949024607481B1ADB081B0449
:10C0700043F0010002B0BDE81040FBF7A9BC00BFCF
:10C08000A8D9020038E6020048D9020007E60200FB
:10C090009BDF70479DDF70479EDF7047A1DF7047D1
:10C0A000A3DF7047AEDF704730B5048800239AB233
:10C0B000944206D9456835F813508D4203F10103C7
:10C0C000F5D1104630BD8B6910B50C461988102982
:10C0D00013D8023189B2FCF7D6FF606078B1A1694C
:10C0E00000230222FDF710F8A26960681288E16956
:10C0F0000223FDF709F8002010BD0920FCE7042009
:10C10000FAE710B50C46C98A10290AD8FCF7BBFF1C
:10C11000606040B1E28AA1690023FCF7F5FF0020CE
:10C1200010BD0920FCE70420FAE70000F0B58BB051
:10C1300004460022C068124E0DF10601FDF704F915
:10C14000142508B10BB0F0BDBDF80630A76805FB9B
:10C150000377002202A93846FDF7F6F830B1E0680F
:10C1600000220DF10601FDF7EFF8EAE79DF808302F
:10C1700056F82330002BECD00398FCF76EFFE8E76D
:10C18000E4E60200F7B505460C4C0D480092241A6F
:10C19000E40824040B460F4616460A492A7844F060
:10C1A0000100FBF728FCAB6833B1E9683A4630463A
:10C1B00003B0BDE8F040184703B0F0BDB0D90200AD
:10C1C00048D9020074E60200F0B58FB00D46012296
:10C1D00006A90646FDF7B8F8044690B99DF8183050
:10C1E000052B65D8DFE803F0030F1C24292EBDF8CA
:10C1F0002A20BDF828102846FFF750FF0446112CCE
:10C2000040D10FB0F0BD02A90798BDF82E200C91C7
:10C210000023FCF783FF0AA92846FFF741FFEDE75B
:10C22000BDF828100DF12A022846FFF731FFE5E797
:10C230000AA92846FFF72EFFE0E70AA92846FFF7DC
:10C240002BFFDBE70DF1060402AB214607980D93A7
:10C2500002220023FCF762FFBDF806200D99079823
:10C260000C940223FCF75AFF0AA92846BDF8067071
:10C27000FFF718FF04460028C1D1BDF80630BB42C5
:10C2800018BF0C249DF818200F4B53F8223013B11F
:10C290000798FCF7E2FE002206A93046FDF754F8A5
:10C2A000002CAED02246294606A8FFF76BFFA8E770
:10C2B0000648074B07491B1ADB081B0443F0020022
:10C2C000FBF782FBDEE700BFE4E6020048D902008C
:10C2D000B0D90200BEE602002DE9F8430F4614462D
:10C2E000054620B94FF00E084046BDE8F883002906
:10C2F000F8D0FFF71BFF3B78052B6AD8214628466C
:10C30000FFF7D2FE2B88834263D014264643A868E9
:10C310003044FDF712F8002860D03B78052B3BD85D
:10C32000DFE803F00311171E242A7A8A398A20468F
:10C33000FFF7B4FE112851D058B3024621463846C3
:10C34000FFF720FF25E007F110012046FFF7A8FEC8
:10C35000F0E7398A07F112022046FFF799FEE9E774
:10C3600007F110012046FFF795FEE3E707F1100102
:10C370002046FFF791FEDDE7BB6907F1100120467B
:10C38000B3F80080FFF78EFE30BBBB691B884345C6
:10C390000DD14FF00008A7E71B4B1C481C49C01AE1
:10C3A000C008000440F00200FBF70EFBF1E70C2090
:10C3B000C3E72869002895D0394698478046A0B140
:10C3C00092E73B7859F82330BBB17868FCF745FE1B
:10C3D00013E04FF0070887E71128AED1DFF834905B
:10C3E0003B7859F82330002BE3D1A8683946304414
:10C3F000FCF74EFF80460028E3D1A8682146304470
:10C40000FFF7E2FE70E700BF48D90200B0D9020092
:10C41000BEE60200E4E60200F8B50D46044678B335
:10C42000FFF784FE29462046FFF73EFE228882421F
:10C4300011D00020F8BD616831F81310814203F17A
:10C4400001030BD0208800234FF6FF769AB2824278
:10C450000BD30420EEE700234FF6FF7099B28A4217
:10C46000E9D82069FCF7F7FDECE761685A0001EBB9
:10C4700043078A5AB24203F10103E7D13D80D8E76E
:10C480000E20D7E737B50C4608B301B30588112D48
:10C4900015D181882046FFF707FE2388ADF80600F6
:10C4A000834214D0112D14D163684FF6FF7223F824
:10C4B00010200DF10601E068FCF7EAFE07E0A5F1A7
:10C4C00030031F2BE5D9A5F150031F2BE1D903B091
:10C4D00030BDA368142202FB0030FFF775FEF6E7BB
:10C4E0008ADF70478BDF70478CDF704730B5037A87
:10C4F00089B004460D46CBB1837C0193FFF7F2FF70
:10C500001422002103A800F075FE019B04F10A0229
:10C5100004F11401A81CFFF7E7FF05238DF80C3088
:10C52000049018B1636A0BB103A8984709B030BDF5
:10C5300010B5034668B162B103290CD1007960B926
:10C540001C8811888C4203D00121197112681A606D
:10C5500010BD0E20FCE70720FAE70420F8E750B1F1
:10C56000CB060AD011F0040116BF012341714371BB
:10C570008271002070470E20704707207047007DB1
:10C58000C0F3C0007047F8B50D460446002852D0ED
:10C5900042620021082200F02DFE002D38D02B79B8
:10C5A00023722B7BA3742B68FBB104F1140203F1FB
:10C5B000080718685968164603C60833BB42324656
:10C5C000F7D1186830609B88B380AA68C2B113683D
:10C5D000C4F80A305368C4F80E3004F12803A36489
:10C5E0001F23A4F84C300020F8BD636903F0E30377
:10C5F00043F4200343F4827363615023A361E4E7AF
:10C60000062363811823E3604FF4C8732382E4E7B1
:10C610006369257203F0E30343F4200343F4827358
:10C6200063615023A361062363811823E3604FF401
:10C63000C8732382D1E70E20D6E7000010B5044668
:10C6400086B048B31422002101A800F0D3FDFFF703
:10C6500049FF2046FFF793FF30B1636A23B10122FF
:10C660008DF8042001A8984704F1480104F1140052
:10C67000FFF736FF044630F008000BD00748084BA0
:10C6800008491B1ADB081B0443F001002246FBF794
:10C690009FF9204606B010BD0E20FBE748D90200E6
:10C6A00098D90200FCE602002DE9F04F06468BB057
:10C6B00036F8083B1B2B07460C4600F094801D2BD8
:10C6C00016D0102B32D1142200210DEB020000F005
:10C6D00091FD06238DF81430BB88ADF81C3004F1B1
:10C6E00014030993636A0696002B40F08F801DE0C7
:10C6F000142200210DEB020000F07CFD04F1140374
:10C7000020460993FFF73BFF04F1480A88B1022352
:10C710008DF8143005A8636A0696984751460020A4
:10C72000FFF7DEFE31462046FFF7E0FE0BB0BDE826
:10C73000F08F94F8058094F80690B8F1000F45D07A
:10C7400094F804B0B98C224604EB8B03054693425F
:10C750000CD1B9F1000F18D0AB4518D19DF81C30A1
:10C7600043F004038DF81C30012313E0386A019173
:10C77000CDE90223FEF794FFDDE90112039B00B32C
:10C780000135EDB2B9F1000F1ED1002DE6D14FF009
:10C790000008434601220696B9F1000F19D09A42CB
:10C7A0001DD100238DF8143031462046FFF79EFE40
:10C7B000636A0BB105A8984751460020FFF790FE29
:10C7C000B4E7B9F1000FC7D10432C0E7434642468F
:10C7D000E1E7B8F1000F02D08DF81490E4E70323ED
:10C7E0008DF81430E4E714220DEB0200002100F074
:10C7F00001FD3A7A012A99D1636A002B96D004216F
:10C8000014348DF8141009948DF8182005A8984751
:10C810008CE762DF70470B6903B118477047F0B5CA
:10C820000C4687B014220546002101A800F0E2FC66
:10C83000227852BBA388012B27D1A1792B7899426A
:10C8400023D194F808C0BDF81260BDF81400BDF8FB
:10C850001670122111FB0C4123469446994216D1C1
:10C86000BCF1000F01D0ADF816701AB1ADF812602E
:10C87000ADF81400EB6843B16288ADF806200022E1
:10C880008DF8042001A92846984707B0F0BDB3F8F9
:10C890000EE0BEF1020F04D0BEF1030F05D012333B
:10C8A000DCE7DF8A4FF0010CF9E7DE8A188B012202
:10C8B000F5E70000F0B5184B87B002AA04460D4614
:10C8C00003F1100C174618685968164603C608335A
:10C8D00063453246F7D1ECB1E5B1AB68D3B121463F
:10C8E0003846FFF796FF98B923788DF80630012374
:10C8F000ADF804304FF6FF7363802B68E3606B681C
:10C900002361AB68A0802081636101A8FFF7C8F8AC
:10C9100007B0F0BD0E20FBE760E7020010B503464C
:10C9200086B00846F9B1F3B149884FF6FF729142DB
:10C9300019D09C888C4216D11988112915D0392913
:10C9400011D182887AB1598991420CD1C26852B111
:10C9500001218DF8041003F11001DB890391ADF87A
:10C96000103001A9904706B010BDC368002BFAD063
:10C9700002218DF80410428001A99847F3E70000D6
:10C9800010B504468AB048B342884FF6FF739A4206
:10C9900026D0C38823B32022002102A800F02AFC5D
:10C9A00001238DF804308DF808300E4B6069CDE915
:10C9B0000434E388ADF81A304FF4003300220793B3
:10C9C00001AB8DF805200893628840F2011302A99B
:10C9D000ADF81830FFF780FC0AB010BD0E20FBE761
:10C9E0000820F9E717C8020070B50E4688B0154652
:10C9F000044600283CD020220021684600F0FAFBC3
:10CA0000F42D0CD91B4B1C481C49C01AC00800044B
:10CA100040F00200FAF7D8FF072008B070BD628826
:10CA20004FF6FF739A420BD1124B13481449C01AA8
:10CA3000C008000440F00200FAF7C6FF0820ECE747
:10CA400001238DF800300F4B6069ADF81650CDE929
:10CA500002342389ADF812300023ADF81430694652
:10CA60004FF481730696ADF81030FFF735FCD4E72C
:10CA70000E20D2E748D9020090D9020029E702002F
:10CA80003BE7020017C8020050B141802AB1538829
:10CA9000C38013888380938803814069FFF7BCBCFF
:10CAA0000E20704710DF704713B5044609496846E9
:10CAB000FCF798FC019808B902B010BDD0E900213C
:10CAC0002046904718B16846FCF796FCF2E7112023
:10CAD000F2E700BF7CE7020013B504460749684649
